:1000000019C020C01FC01EC01DC01CC01BC01AC00C
:1000100019C018C017C016C015C014C013C012C034
:1000200011C010C00FC00EC00DC00CC00BC00AC064
:1000300009C008C011241FBECFEFD4E0DEBFCDBF82
:1000400002D030C0DDCF8EEF8AB98FE087B98FEF55
:1000500084B91BB880E388B915B82CE030E0309340
:10006000C5002093C4001092C00086E08093C200B7
:1000700088E18093C10080E0A8952091C00027FF0F
:1000800003C09091C60002C08823B1F38091C000E4
:1000900085FD02C081E0F0CF9093C60085B18F5FEF
:0800A00085B9E9CFF894FFCF08
:00000001FF
