:1000000019C02BC02AC029C028C027C026C025C0BF
:1000100024C023C022C063C020C01FC01EC01DC09A
:100020001CC01BC01AC019C018C017C016C015C00C
:1000300014C013C011241FBECFEFD4E0DEBFCDBF6C
:1000400012E0A0E0B1E0EAE1F2E002C005900D921A
:10005000A034B107D9F7B4D0DEC0D2CF9091C000A0
:1000600095FD02C0A895FACF8093C60008950F931E
:100070001F93CF93DF93EC018038910530F40A97FA
:1000800011F48DE0EBDF8C2F19C08C0186E0169502
:1000900007958A95E1F7C11588E0D80718F4802FF5
:1000A000806C08C08D2F82958F70806ED7DF802F77
:1000B0008F738068D3DF8C2F8F738068DF91CF912F
:1000C0001F910F91CBCFCF93DF93EC018991999141
:1000D000009711F0CCDFFACFDF91CF9108951F92F6
:1000E0000F920FB60F9211242F933F934F935F936C
:1000F0006F937F938F939F93AF93BF93CF93DF9330
:10010000EF93FF93C0910001D0910101CE01817066
:1001100099279195819591098827947BD695C795C4
:10012000C827D927D0930101C0930001CE019F7742
:100130008F5E954890938900809388001092850087
:100140001092840089E090E092DFFE01E770FF27C3
:10015000EE0FFF1FEE5DFE4F80819181B4DFFE0147
:10016000F695E795F695E795EE70FF27EE5EFE4F64
:1001700080819181A8DF55E0D695C7955A95E1F722
:10018000CE70DD27CE5FDE4F888199819CDF8AE0CB
:1001900090E06DDF8AE090E06ADFFF91EF91DF9100
:1001A000CF91BF91AF919F918F917F916F915F910F
:1001B0004F913F912F910F900FBE0F901F90189568
:1001C0008091C00082608093C0001092C10086E0E0
:1001D0008093C20089E18093C4001092C50088E03A
:1001E0008093C100109280008DE08093810081E1B6
:1001F0009AE7909389008093880080916F008260D5
:1002000080936F008AE090E032DF8AE090E02FDF99
:0A0210007894A895FECFF894FFCF74
:10021A00D20432013A0146015001580164016E01CB
:10022A007601800190019E01AE01BC01C801D40192
:10023A00E401F401FC0106020E021A0224022E0253
:10024A0038027D764D30DB9800006A304F306A30D4
:10025A008A306C3000009999923064305030000036
:10026A0032976E308973000063658B305F3073306C
:10027A006B3000004A3069308A30C95400001C597A
:10028A00D25BC9540000CE579230FA518B3000002D
:10029A000D548230573089306C306B866E300000D6
:1002AA00463054304B306C30F296823000005F306A
:1002BA0048306A308030683059308B300000DB6B50
:1002CA00803057306E300A4E6B300000CD5FAC5133
:1002DA006E30B1826E30000008673D844B304B307F
:1002EA008B30000082304630DD5B5F30683044304E
:1002FA0075300000663046306130933072306830B5
:10030A00643000007D968E7084300000517546304E
:10031A0064308430000025666E30155900007F3045
:10032A0058304B301C59843000008A866E30F058A1
:10033A0059300000DB56944EBA4E6B300000778D70
:10034A006630455C66300000346CE59C8430000001
:00000001FF
