:100000002BC03AC039C038C037C036C035C034C044
:1000100033C032C031C030C02FC02EC04CC02CC045
:100020002BC02AC029C028C027C026C025C024C094
:1000300023C022C00A092020000A0A09004F766561
:1000400072666C6F77004F766572666C6F77004FE3
:10005000766572666C6F770011241FBECFEFD4E017
:10006000DEBFCDBF24E0A0E0B1E001C01D92A63C00
:10007000B207E1F768D2D3C2C3CFCF93C82F8A307B
:1000800011F48DE0FADF8091C00085FD02C0A895D3
:10009000FACFC093C600CF910895CF93DF93FC01B0
:1000A0008491EF012196882319F0E7DFFE01F8CF54
:1000B000DF91CF9108951F920F920FB60F921124E6
:1000C000A8950F900FBE0F901F901895E6DF8AE05D
:1000D000D4DFFFCFCF93DF93EC01CE5BDE4FDB01AC
:1000E000AE5BBE4FFA01EE5BFE4F20E030E07A914E
:1000F0006A915E914E91460F571F240F351FA9013B
:100100005F77529342932227330F221F3327C8175A
:10011000D90769F7232B19F08FE490E0D7DFDF913F
:10012000CF910895CF93DF93EC01CE5BDE4FDB01DF
:10013000AE5BBE4FFA01EE5BFE4F40E050E03A91FD
:100140002A917E916E91261B370B241B350BA9013A
:100150005F7752934293A9014427550F441F5527B7
:10016000C817D90761F7452B19F086E490E0AEDF98
:10017000DF91CF910895AF92BF92CF92DF92EF922D
:10018000FF920F931F93CF93DF938C015B01EC01E0
:10019000CE5BDE4FFA01EE5BFE4FC12CD12C760117
:1001A0003A912A91D5012FD2C60ED71EE81EF91E0C
:1001B000C6019F77929382938FE0F694E794D79449
:1001C000C7948A95D1F70C171D0751F7CD28CE2873
:1001D000CF2819F08DE390E079DFDF91CF911F9167
:1001E0000F91FF90EF90DF90CF90BF90AF90089568
:1001F0004F925F926F927F928F929F92AF92BF9237
:10020000CF92DF92EF92FF920F931F93CF93DF93E2
:100210008C01E9017C01EE0CFF1C6B01CE0CDF1C94
:10022000E20EF31E47015C0180E090E0DC012A0150
:10023000612C712CF1EAAF16B1040CF53FE0880F88
:10024000991FAA1FBB1F3A95D1F7F6012191319151
:100250006F01BC01CD01620F731F811D911DA301B0
:100260009201AFD1F82FE92FD4012D933D934D0189
:10027000CB01AF2FBE2FEFEFAE1ABE0ADBCF880F38
:10028000991FAA1FBB1F84159505A605B70538F44D
:10029000D7018D919C91892B89F0C80111C0C05C58
:1002A000DE4F88819981019697FF05C09F779983DA
:1002B00088832297F6CF99838883EACFC801019675
:1002C000DF91CF911F910F91FF90EF90DF90CF9032
:1002D000BF90AF909F908F907F906F905F904F9066
:1002E00008956F927F928F929F92AF92BF92CF921A
:1002F000DF92EF92FF920F931F93CF93DF93EC0166
:1003000089E390E0CADE8881805DB7DE8EE2B5DEEB
:1003100024EBE22EF12C02E310E03AE0832E912C44
:1003200019821882AE0160E177E2CE0124DF788085
:10033000698084E0C82ED12C98EEA92E93E0B92EC6
:10034000872D962DB50129D1782E692E80E3860F51
:1003500094DE0150110929F484E390E09EDE02E36B
:1003600010E0C501B40119D15B0181E0C81AD108C0
:1003700039F781E0E81AF10899F68AE07EDE8AE032
:10038000DF91CF911F910F91FF90EF90DF90CF9071
:10039000BF90AF909F908F907F906F906ECECF92D6
:1003A000DF92EF92FF920F931F93CF93DF938AE038
:1003B00064DE80E190E0909301018093000142E0CF
:1003C000C42E41E0D42EF6011192119282E0E23463
:1003D000F807D1F720E031E045E050E0B90180E0D6
:1003E00090E006DFE0E0F1E0A2E4B2E081919191DB
:1003F0008D939D9382E0E234F807C1F7EE24E394F5
:10040000F12CC0E0D0E000E010E020E031E049E174
:1004100050E0B901CE01ECDEEC01813A91053CF5EA
:10042000E2E0EE0EF11CF801EE0FFF1FEC57FC4F5F
:100430000C171D072CF40F5F1F4F11921192F8CF6C
:1004400024E833E0A70160E071E0CE01D1DE813A1B
:1004500091056CF442E452E064E873E0CA01E1FE05
:1004600002C060DE01C036DE83E207DECECF8AE066
:1004700004DE84E090E09093010180930001F60196
:10048000119211926F01F2E4CF16F2E0DF06B9F794
:1004900020E031E04FEE50E0B90180E090E0A8DECE
:1004A00042E452E060E071E0CA013CDEEE24E394F5
:1004B000F12CC0E0D0E000E010E020E031E04FEEB1
:1004C00050E0B901CE0194DE813A91058CF520E02F
:1004D00031E04FEE50E0B9018BDEEC01813A91053D
:1004E0003CF582E0E80EF11CF801EE0FFF1FEC571F
:1004F000FC4F0C171D072CF40F5F1F4F1192119228
:10050000F8CF24E833E0A70160E071E0CE0170DEAF
:10051000813A91056CF442E452E064E873E0CA0168
:10052000E1FE02C0D7DD01C0FDDD84E2A6DDC5CF5E
:1005300082E492E0DF91CF911F910F91FF90EF90B5
:10054000DF90CF90CECE9EE088E10FB6F894A895CC
:10055000809360000FBE909360008091C000826025
:100560008093C0001092C10086E08093C20089E1B0
:100570008093C4001092C50088E08093C10089EF89
:1005800087BD82E084BD83E085BD80916E0082607E
:1005900080936E00789403DFFFCFAA1BBB1B51E151
:1005A00007C0AA1FBB1FA617B70710F0A61BB70BE3
:1005B000881F991F5A95A9F780959095BC01CD0188
:1005C0000895A1E21A2EAA1BBB1BFD010DC0AA1F94
:1005D000BB1FEE1FFF1FA217B307E407F50720F0AC
:1005E000A21BB30BE40BF50B661F771F881F991F27
:1005F0001A9469F760957095809590959B01AC0170
:10060000BD01CF010895A29FB001B39FC001A39F78
:1006100001D0B29F700D811D1124911D0895F89491
:02062000FFCF0A
:00000001FF
