:1000000019C033C032C031C030C02FC02EC02DC087
:100010002CC02BC02AC05CC028C027C027C025C068
:1000200024C023C022C021C020C01FC01EC01DC0CC
:100030001CC01BC011241FBECFEFD4E0DEBFCDBF5C
:1000400011E0A0E0B1E0EEEAF1E002C005900D920F
:10005000AA33B107D9F721E0AAE3B1E001C01D92AC
:10006000AC33B207E1F773D0A0C0CACF1F920F9292
:100070000FB60F9211248F939F93EF93FF9380916C
:100080003A018F5F877080933A0180910101880F58
:10009000811D809301018F7088B980910101807F5B
:1000A0008BB9E0913B0180913A0198E0E902F001BF
:1000B0001124EE5FFE4FE80FF11D808187BDFF9197
:1000C000EF919F918F910F900FBE0F901F901895F9
:1000D0001F920F920FB60F9211242F933F938F937D
:1000E0009F9390913B0180910001980F90933B0169
:1000F00090913B01992321F090913B01963021F49E
:10010000819580930001449A209178003091790084
:100110008FEF93E0821B930B24E0880F991F2A95A1
:10012000E1F79093890080938800109285001092E7
:10013000840080917A00806580937A009F918F91EE
:100140003F912F910F900FBE0F901F9018958FEF3A
:1001500084B99FE197B99AEF9AB985B989EF87BDBC
:1001600082E084BD83E085BD80916E0082608093D3
:100170006E0081E49FE09093890080938800109244
:1001800080008CE08093810080916F00826080937A
:100190006F0080E280937E0085E480937C0086E897
:0E01A00080937A007894A895FECFF894FFCF54
:1001AE0001FE01010101030F3FFF0103070F1F3F76
:1001BE007FFF161F2C3F5A7FB4FF5A5A5A5A5A5A6B
:1001CE005A5AFFB47F5A3F2C1F16FF7F3F1F0F074F
:0A01DE000301FF3F0F0301010101BF
:00000001FF
