:020000020000FC
:10000000002401E0102E0FEF0DBF08E00EBF2B9A69
:100010002C9A249A1DD000E002BD00E001BD0091A1
:10002000660000BD04E00FBB06E00FBB0000F999BD
:10003000FECF18E000E123B123FFFDCF35B130271B
:1000400023B123FDFDCF35B91A95A9F70000FFCFE5
:10005000662781E0000050E4650F609366000000B1
:10006000000034D0403081F15695552331F0052FF2
:10007000413009F40195600FF0CF413011F051E0AB
:1000800001C05FEF650F60936600000000001ED0A6
:100090004030D1F0650F609366000000000016D07C
:1000A000403091F05195550F550F650F60936600E4
:1000B000000000000BD0403039F0882319F08A95F9
:1000C00060E8C9CF249AC3CF462F0895332401E0B6
:1000D000402E06E206BC11E01B9BFECF1B99FECF13
:1000E00015BD25B320FF02C0310C45BA1B9BFECFC6
:1000F00025B320FF02C0310C45BA1B99FECF25B3B2
:1001000020FF02C0310C45BA1B9BFECF25B320FF58
:1001100002C0310C45BA1B99FECF0A9581F725B371
:1001200020FF02C0310C45BA1B9BFECF25B320FF38
:1001300002C0310C45BA1B99FECF05BC25B320FF88
:1001400004C00894301C217025BB26B41FE726E2AA
:10015000211632063CF411EC25E21215230524F495
:0C01600040E0089541E008954FEF08953D
:00000001FF
